:020000040000FA
:0600000039EF16F01200BA
:020006001200E6
:0600080004EF08F01200F5
:060018000CEF08F01200DD
:02001E000100DF
:0C002000FA0F00006B040000020000005A
:04002C000501C66B99
:10003000C76BC86BC96BCA6BCB6BCC6BCD6BCE6B14
:10004000CF6BD06BD16B200EE66EE66AE66AD30EFC
:10005000E66E050EE66EE7EC15F0146E050EE15E39
:1000600014501200E3DF0501D26B1200D9CFE6FF76
:10007000E1CFD9FF060EE1260501D25101E015D1ED
:10008000200E086E096AD3C50DF0D4C50EF0C9EC78
:1000900015F006C01EF007C01FF0100E086E096AAA
:1000A000D5C50DF0D6C50EF0C9EC15F01E500624CE
:1000B0001C6E1F5007201D6E080E086E096AD7C5FA
:1000C0000DF0D8C50EF0C9EC15F01C5006241A6EC0
:1000D0001D5007201B6E040E086E096AD9C50DF06D
:1000E000DAC50EF0C9EC15F01A500624186E1B5034
:1000F0000720196E020E086E096ADBC50DF0DCC51B
:100100000EF0C9EC15F018500624166E1950072091
:10011000176E16500501DD25146E1750DE21156E81
:1001200014C0DEFF15C0DDFF080E086E096ADFC5CA
:100130000DF0E0C50EF0C9EC15F006C01AF007C0CE
:100140001BF0040E086E096AE1C50DF0E2C50EF061
:10015000C9EC15F01A500624186E1B500720196EB2
:10016000020E086E096AE3C50DF0E4C50EF0C9EC95
:1001700015F018500624166E19500720176E1650E9
:100180000501E525146E1750E621156E020E14C008
:10019000DBFF030E15C0DBFF200E086E096AE7C502
:1001A0000DF0E8C50EF0C9EC15F006C01EF007C052
:1001B0001FF0100E086E096AE9C50DF0EAC50EF0D1
:1001C000C9EC15F01E5006241C6E1F5007201D6E32
:1001D000080E086E096AEBC50DF0ECC50EF0C9EC0F
:1001E00015F01C5006241A6E1D5007201B6E040EBD
:1001F000086E096AEDC50DF0EEC50EF0C9EC15F0FC
:100200001A500624186E1B500720196E020E086E35
:10021000096AEFC50DF0F0C50EF0C9EC15F01850E5
:100220000624166E19500720176E16500501F12589
:10023000146E1750F221156E040E14C0DBFF050E6C
:1002400015C0DBFFD950040FE96EDACFEAFF3F0E8D
:10025000EE1801E1ED5018E1D9CFE9FFDACFEAFF5E
:100260003D0EEE1801E1ED500FE1500EE66E72EC1E
:1002700007F0E5528A7ADC0EE66E050EE66ECDECEE
:1002800012F0E552E5520ED04F0EE66E72EC07F01A
:10029000E5528A7AC20EE66E010EE66ECDEC12F0E1
:1002A000E552E5520501010ED26F060EE15C02E255
:1002B000E16AE552E16EE552E7CFD9FF1200B6DE02
:1002C0000501D26B1200D9CFE6FFE1CFD9FFD9509B
:1002D000FD0FE96EFF0EDA20EA6E010EEE1801E165
:1002E000ED5001E1DCD00501D20505E1C4EC12F0CE
:1002F000AFEC12F01AD1C4EC12F00501C75110E1B5
:10030000AAEC15F0F3CFCAF5F4CFCBF50501010E39
:10031000C76FAFEC12F00501010EC66F06D1BED05B
:10032000020EC75D01E0B8D0AAEC15F0F3CFCCF512
:10033000F4CFCDF50501CC51CA5DCD51CB5907E2C3
:10034000CA51CC5DD06FCB51CD59D16F0ED0CAC53B
:1003500014F0CBC515F0FF0ED88014561556145066
:10036000CC25D06F1550CD21D16FC651020A1DE0AA
:10037000030A02E077DED9D0400ED05D190ED159C4
:1003800009E3200ED880D055480ED15503E3020E64
:10039000C66F01D067DECCC5CAF5CDC5CBF505016A
:1003A000010EC76FAFEC12F076D0500ED05D460E46
:1003B000D15925E3C00ED880D0555D0ED1551FE32D
:1003C000020EC66FC8C5E9FFC9C5EAFF010ED89085
:1003D000E936EA36E806FBE1D30EE926050EEA2205
:1003E000EE6AED6A0501C82B000EC923CCC5CAF51B
:1003F000CDC5CBF5010EC76FAFEC12F04AD0300E71
:10040000D05D750ED15926E3100ED880D055A40EBC
:10041000D15520E3020EC66FC8C5E9FFC9C5EAFF82
:10042000010ED890E936EA36E806FBE1D30EE9265C
:10043000050EEA22010EEE6EED6A0501C82B000ED4
:10044000C923CCC5CAF5CDC5CBF5010EC76FAFEC3E
:1004500012F01FD0400ED05D190ED15919E3200EB5
:10046000D880D055480ED15513E3100EC81901E1BC
:10047000C95101E1FBDDDADD0501020EC66F010E97
:10048000C76FAFEC12F0CCC5CAF5CDC5CBF501D026
:10049000E9DD01D000D002D0E5DD47D046D005012E
:1004A000D20505E1BEEC12F0B5EC12F03ED0B5EC91
:1004B00012F00501C70537E1AAEC15F0F3CFCCF532
:1004C000F4CFCDF50501CC51CA5DCD51CB5907E232
:1004D000CA51CC5DCE6FCB51CD59CF6F0ED0CAC5AE
:1004E00014F0CBC515F0FF0ED880145615561450D5
:1004F000CC25CE6F1550CD21CF6F080ECE5D070EE7
:10050000CF590FE3700ED880CE55170ECF5509E3A3
:10051000020EC76FBEEC12F0CCC5CAF5CDC5CBF547
:1005200001D0A0DD02D09EDD00D0E552E7CFD9FF9B
:10053000120032EF00F00501100EC81901E1C95197
:0C05400003E1D25101E192DD32EF00F046
:04054C000401305125
:100550001F0B010801E04AD03051600BE842E8422D
:10056000E842E842E842010801E040D0345103E0AB
:10057000340501E03BD03151220A33E0030A26E082
:10058000010A17E0210A0EE0010A01E02FD005015F
:10059000510EA76F040EA86F080EAA6FAB6BA9814E
:1005A000A98F24D00501510EA76F040EA86FA98F43
:1005B0001DD036C4AFF537C4B0F50501800EAC6F61
:1005C000050EAD6FB16BB26BAE8F10D00501800E12
:1005D000A76F050EA86F070EAA6FAB6BC10EA96FB0
:1005E00005D032C44CF40501A98F00D012000501DA
:1005F000806B4B0E816F826B836B846B856B080EF7
:10060000866F0401406B1A0EE66E010EE66E53EC27
:1006100009F0E552E5521E0EE66E020EE66E53EC50
:1006200009F0E552E552400EE66E400EE66E050E0C
:10063000E66EE66A020EE66E8AEC09F0146E050EAE
:10064000E15E1450F3CF48F4F4CF49F404014A6B4F
:100650004B6B416B1200D9CFE6FFE1CFD9FFFD0E06
:10066000DBCF08F0FE0EDBCF09F0050E081801E124
:10067000095002E0000E31D0FB0EDBCF14F0FC0E6F
:10068000DBCF15F004014851141802E14951151847
:1006900013E1400EE66E400EE66E050EE66EE66A6B
:1006A000020EE66E8AEC09F0146E050EE15E14503F
:1006B000F3CF48F4F4CF49F4FB0EDBCF14F0FC0E7B
:1006C000DBCF15F004014A51141802E14B51151803
:1006D00002E1416B466B010E00D0E552E7CFD9FF36
:1006E0001200D9CFE6FFE1CFD9FF0401406B48519A
:1006F000491102E1000E08D048C4E9FF49C4EAFFED
:10070000EF50800B01E0010E000945E1FC0EDBCF4C
:1007100014F048C4E9FF49C4EAFFEE52EF50D88014
:10072000145408E248C4E9FF49C4EAFFEE52FC0E43
:10073000EFCFDBFF406BFC0EDB50405D19E2405118
:10074000EA6A400FE96E050EEA22EF50E66E40516C
:10075000E76EFD0EDBCFE9FFFE0EDBCFEAFFE750D1
:10076000E926000EEA22E552E750EF6E402BE3D770
:10077000400EE66E400EE66E050EE66EE66A020E6E
:10078000E66E8AEC09F0146E050EE15E1450F3CFAC
:1007900048F4F4CF49F40401405100D0E552E7CFCA
:1007A000D9FF1200D9CFE6FFE1CFD9FFA39404010E
:1007B00041510CE1FD0EDBCF42F4FE0EDBCF43F4E2
:1007C000FC0EDBCF46F4010E476F416FA384E55268
:1007D000E7CFD9FF1200D9CFE6FFE1CFD9FF030E53
:1007E000E126A3940401415102E0A3842FD0DF6AE3
:1007F000FD0EDBCF08F0FE0EDBCF09F0DE5208C0A5
:10080000DEFF09C0DDFFDD52DF2ADF50146E156AFE
:10081000FF0E141801E1155001E10BD0010EDBCFE2
:10082000E9FFDB2A020EDBCFEAFF01E3DB2AEF5010
:10083000EBE1FD0EDBCF42F4FE0EDBCF43F4DFCF66
:1008400046F40401010E476F416FA384030EE15C7F
:1008500002E2E16AE552E16EE552E7CFD9FF12000C
:10086000D9CFE6FFE1CFD9FF030EE126A39404011F
:10087000415102E0A38430D0DF6AFD0EDBCF08F0E7
:10088000FE0EDBCF09F0DE5208C0DEFF09C0DDFF3F
:10089000DD52DF2ADF50146E156AFF0E141801E1D5
:1008A000155001E10CD0010EDBCFF6FFDB2A020E62
:1008B000DBCFF7FF01E3DB2A0800F550EAE1FD0E8C
:1008C000DBCF42F4FE0EDBCF43F4DFCF46F404016E
:1008D000476B010E416FA384030EE15C02E2E16A03
:1008E000E552E16EE552E7CFD9FF1200D9CFE6FF1E
:1008F000E1CFD9FF020EE126A39404014A514B1126
:1009000002E1000E08D04AC4E9FF4BC4EAFFEF50F1
:10091000800B01E0010E000902E0A38487D0030EE2
:10092000415D01E1416B415102E1A3847FD0020EA0
:10093000415D16E1E66A000EE66EE66A010EE66EBD
:10094000020EE66E8AEC09F0146E050EE15E14509C
:10095000F3CF4AF4F4CF4BF40401030E416F65D09A
:10096000410563E1400E146E156A4651145C000E99
:10097000155803E2400EDF6E02D046C4DFFFDF50A1
:10098000465D466F000E446F050E456F010EDFCFCA
:10099000DBFF475117E1010EDB5013E042C4F6FFC5
:1009A00043C4F7FF0800F55044C4E9FF45C4EAFF1B
:1009B000EF6E442B000E4523422B4323010EDB0632
:1009C000EAD715D0010EDB5012E042C4E9FF43C460
:1009D000EAFFEF5044C4E9FF45C4EAFFEF6E442B41
:1009E000000E4523422B4323010EDB06EBD7465175
:1009F00008E1400EDF5C03E1020E416F02D0030EFE
:100A0000416FDFCFE6FF000EE66E050EE66E010ECB
:100A1000E66E020EE66E8AEC09F0146E050EE15EDB
:100A20001450F3CF4AF4F4CF4BF4A384020EE15CEC
:100A300002E2E16AE552E16EE552E7CFD9FF12002A
:100A4000DACFE4FFE2CFDAFFE9CFE4FFEACFE4FF59
:100A5000F6CFE4FFF7CFE4FFF5CFE4FFF3CFE4FFF9
:100A6000F4CFE4FFFACFE4FF00EE00F0140EE80448
:100A700003E3EECFE4FFFBD700EE14F00C0EE80426
:100A800003E3EECFE4FFFBD7E652A4A403D09BEC34
:100A900008F00BD0F0A004D01FEC16F0F09005D0B9
:100AA000F2A003D0C8EC13F0F290E55200EE1FF074
:100AB0000C0EE80403E3E5CFEDFFFBD700EE13F0E7
:100AC000140EE80403E3E5CFEDFFFBD7E5CFFAFF13
:100AD000E5CFF4FFE5CFF3FFE5CFF5FFE5CFF7FF77
:100AE000E5CFF6FFE5CFEAFFE5CFE9FFE5CFDAFF97
:100AF0001100D8CFE4FFE0CFE4FFE46EDACFE4FFEB
:100B0000E2CFDAFFE9CFE4FFEACFE4FFF6CFE4FF7C
:100B1000F7CFE4FFF5CFE4FFF3CFE4FFF4CFE4FF3A
:100B2000FACFE4FF00EE00F0140EE80403E3EECF8A
:100B3000E4FFFBD700EE14F00C0EE80403E3EECF65
:100B4000E4FFFBD7E6529EA204D0AEEC11F09E92D9
:100B500005D09EAC03D025EC13F09E9CE55200EE30
:100B60001FF00C0EE80403E3E5CFEDFFFBD700EE2A
:100B700013F0140EE80403E3E5CFEDFFFBD7E5CF58
:100B8000FAFFE5CFF4FFE5CFF3FFE5CFF5FFE5CFC3
:100B9000F7FFE5CFF6FFE5CFEAFFE5CFE9FFE5CFC9
:100BA000DAFFE550E5CFE0FFE5CFD8FF100025D80C
:100BB0000501915102E1DBEC0AF03FD8F9D71200B0
:100BC0000A0EE66E01EC16F0E55285EC11F084ECAD
:100BD00015F00BEC13F018EC16F01CEC16F094EC7E
:100BE00013F0AAEC13F00FEC13F0D08E9E6AF28E85
:100BF000F28C82EC12F091EF12F00F0EC112800E07
:100C00009B6E700ED36E100ED26ED2AEFED7B50EA6
:100C1000E96E0F0EEA6E900EEF6E0F01010E5B6F24
:100C20005C6B5D6B02D80FEF08F0CADF0001E26B6E
:100C3000E16B010EE06F8A8A1200D9CFE6FFE1CFA7
:100C4000D9FF020EE126200E0501E76E9119E8AEEC
:100C500002D0E73402D0E750915D03E36050020B0D
:100C600001E074D00001E15111E0E0510EE1040116
:100C700041510BE1E50EE66E0F0EE66E30EC04F02E
:100C8000E552E5520001010EE06F01D0E06B040176
:100C900041515AE1400EE66EA00EE66E000EE66E81
:100CA00071EC03F0E552E552E552DF6EDF504CE0A7
:100CB000010EDB6ADF50F36E010EDBCFF4FFF35061
:100CC000F45C37E2010EDB50EA6AA00FE96E000E19
:100CD000EA22EF500A0A16E0070A14E0010EDB5080
:100CE000EA6AA00FE96E000EEA22EF28E66E010E16
:100CF000DB50EA6A600FE96E000EEA22E552E75027
:100D0000EF6E14D0010EDB50EA6AA00FE96E000E00
:100D1000EA22EF50E66E010EDB50EA6A600FE96EE0
:100D2000000EEA22E552E750EF6E00D0010EDB2AFA
:100D3000C1D7DFCFE6FF600EE66E000EE66ED2ECA6
:100D400003F0E552E552E55276EC04F0020EE15C68
:100D500002E2E16AE552E16EE552E7CFD9FF120007
:100D600004016B516C1104E1100E6B6F270E6C6F58
:100D70006B07000E6C5B60A20AD06B516C1106E130
:100D8000897089A002D0898201D089922ED0050174
:100D9000915103E18990899228D0910503E18980DE
:100DA000898223D0020E915D03E1898089921DD052
:100DB000040E915D03E18990898217D0100E915D38
:100DC00007E104016B516C1102E1897089920DD029
:100DD000200E915D0AE104016B516C1106E18970EE
:100DE00089A002D0899201D08982120012001200DB
:100DF00012001200A6EF02F01200F7EF02F0050158
:100E0000B50520E10501B6051DE1A394F0DF609270
:100E10000501B66B0001100EE36F0E0EE46FE307E1
:100E2000000EE45BE351E411FAE16084080EE36F25
:100E3000070EE46FE307000EE45BE351E411FAE10F
:100E40006094A3841200D9CFE6FFE1CFD9FFFD0E55
:100E5000DBCF08F0FE0EDBCF09F0050E081801E12C
:100E6000095039E0E868081802E17F0E091831E0FE
:100E7000030E081801E109502AE0020E081801E1EA
:100E8000095023E0010E081801E109501CE0740E1E
:100E9000081801E1095015E0750E081801E1095024
:100EA0000EE0730E081801E1095007E0720E0818F1
:100EB00001E1095001E010D00FD09ADF0DD096DF8C
:100EC0000BD095DF09D099DF07D096DF05D092DFF0
:100ED00003D08FDF01D000D0010E00D0E552E7CF64
:100EE000D9FF1200D9CFE6FFE1CFD9FF040141516C
:100EF00011E1FE0EDBCF60F0010EE66E600EE66ED5
:100F0000000EE66ED2EC03F0E552E552E55276ECC7
:0C0F100004F000D0E552E7CFD9FF12003A
:040F1C0012010002BC
:100F200002000008D8040A000001010200010902C1
:100F30004300020100C03209040000010202010066
:100F400005240010010424020205240600010524E2
:100F50000100010705810308000209040100020ADB
:100F60000000000705020240000007058202400061
:100F7000000403090434034D006900630072006F2C
:100F80000063006800690070002000540065006381
:100F90000068006E006F006C006F00670079002031
:100FA0000049006E0063002E0034034300440043F8
:100FB000002000520053002D003200330032002088
:100FC0000045006D0075006C006100740069006FE1
:100FD000006E002000440065006D006F002E0F7150
:050FE0000F750FA90FC1
:0B0FE500427574746F6E2050726573CB
:0A0FF000736564202D2D200D0A000A
:020FFA000000F5
:0610000039EF16F01200AA
:02100600FFFFEA
:0610080020EF05F01200CC
:021016000001D7
:0610180079EF05F0120063
:02101E00D9CF28
:10102000E6FFE1CFD9FFE652A394676A656A6A6A70
:10103000020EE66EE66AE66A6B0EE66E0F0EE66E6E
:10104000E7EC15F0146E050EE15E1450160E626E9C
:101050009F0E666E7B0E646EDF6ADF50146E156A3B
:101060000C0E145C000E155810E2DF50040DF3CF87
:10107000E9FFF4CFEAFF000EE926040EEA22EE6A49
:10108000EE6AEE6AEE6ADF2AE8D7608C636A6098DF
:10109000609C65A607D065960501A96BAE6BAF6B2A
:1010A000B06BF7D70501010EC26FC36FC46BC56B80
:1010B000B66BDF6A030EDF5C26E2EA6ADF34FE0B02
:1010C000EA36E96E9F0EE926050EEA22EE6AED6A1F
:1010D000EA6ADF34FE0BEA36E96E990EE926050E60
:1010E000EA22EE6AED6ADF50EA6ABA0FE96E050E8F
:1010F000EA22EF6ADF50EA6ABD0FE96E050EEA22C6
:10110000EF6ADF2AD7D70501080E9F6F040EA06F84
:10111000160E6A6E0401300E026F040E036F080E85
:10112000016F840E006F0501926B916BE552E552E1
:10113000E7CFD9FF1200D9CFE6FFE1CFD9FFE652C2
:101140000501910507E160BA05D0656A648064888D
:10115000020E916F6550040B06E06450040B03E02F
:101160006594ADEC0EF060A202D0A49497D06550C7
:10117000010B09E06450010B06E051DFA384050177
:10118000040E916F65906550100B06E06450100BD3
:1011900003E098EC0EF0659865AC19D064AC0FD004
:1011A000010EE66EE66A000EE66EE66A730EE66E05
:1011B000E66A23EC07F0146E060EE15E1450659C9F
:1011C0000501C05101E0C007C05101E10BDA6550D3
:1011D000200B05E06450200B02E07FEC0EF0655020
:1011E000020B13E06450020B10E0010EE66EE66A9B
:1011F000000EE66EE66AE6687F0EE66E23EC07F008
:10120000146E060EE15E1450676A040E0501E76E67
:101210009119E8AE02D0E73402D0E750915D02E2C6
:10122000A4943CD064A639D0DF6A040EDF5C35E2BA
:1012300065A632D061CFB7F50501B751780BE8420A
:10124000E842E842B86F6596B7B508D0B851EA6A87
:10125000BD0FE96E050EEA22EF7007D0B851EA6AB9
:10126000BA0FE96E050EEA22EF70B85103E1C4EC43
:101270000EF010D0000EE66EE66AB70EE66E050EB2
:10128000E66E720EE66EE66A23EC07F0146E060E4A
:10129000E15E1450DF2AC9D700D0A494E552E5528C
:1012A000E7CFD9FF1200D9CFE6FFE1CFD9FF020E79
:1012B000E126FD0EDBA407D0E66AFE0EDBCFE6FFDB
:1012C00022DAE552E552FD0EDBA208D0010EE66EF1
:1012D000FE0EDBCFE6FF17DAE552E552FE0EDB50DD
:1012E000156A6A0F146E0F0E152214C0DEFF15C0AA
:1012F000DDFFDECFE9FFDDCFEAFFFD0EDBCFEFFF45
:10130000020EE15C02E2E16AE552E16EE552E7CFEE
:10131000D9FF1200D9CFE6FFE1CFD9FF020EE126B7
:10132000FD0EDB500FE0FE0EEA6ADB34FE0BEA3600
:10133000E96E9F0EE926050EEA22EECFDEFFEDCF25
:10134000DDFF0ED0FE0EEA6ADB34FE0BEA36E96EF4
:10135000990EE926050EEA22EECFDEFFEDCFDDFF86
:10136000D9CFE9FFDACFEAFFEE50ED1003E1F36ADF
:10137000F46A49D0DECFE9FFDDCFEAFF020EE926AD
:10138000000EEA22FB0EDBCFEEFFFC0EDBCFEDFF03
:10139000DECFE9FFDDCFEAFFEE52FA0EDBCFEFFF43
:1013A000400E146EDECFE9FFDDCFEAFF1450EF16DA
:1013B000880E146EDECFE9FFDDCFEAFF1450EF1286
:1013C000FD0EDB500CE0FE0EEA6ADB34FE0BEA3663
:1013D000E96E9F0EE926050EEA22EF740BD0FE0E91
:1013E000EA6ADB34FE0BEA36E96E990EE926050E51
:1013F000EA22EF74DECF14F0DDCF15F014C0F3FF56
:1014000015C0F4FF00D0020EE15C02E2E16AE55291
:10141000E16EE552E7CFD9FF1200D9CFE6FFE1CF69
:10142000D9FF020EE126FE0EDB5020E197C5E9FF51
:1014300098C5EAFFEE52080EEF6E97C5E9FF98C512
:10144000EAFF020EE926000EEA22300EEE6E040ECE
:10145000ED6E97C5E9FF98C5EAFF8C0EEF6E9FC54C
:10146000E9FFA0C5EAFF840EEF6E3DD0FD0EDB5014
:10147000E824166EFE0EDB50040DF3501624040D06
:10148000F3CF14F0F4CF15F0000E1426040E15223D
:1014900014C0DEFF15C0DDFF840E146EDECFE9FF41
:1014A000DDCFEAFF1450EF12FD0EDB50E824166E7C
:1014B000FE0EDB50040DF3501624010F040DF3CF84
:1014C00014F0F4CF15F0000E1426040E152214C0EB
:1014D000DEFF15C0DDFF840E146EDECFE9FFDDCF29
:1014E000EAFF1450EF12020EE15C02E2E16AE552FB
:1014F000E16EE552E7CFD9FF1200D9CFE6FFE1CF89
:10150000D9FF60A84ED0FE0EEA6ADB34FE0BEA3645
:10151000E96E9F0EE926050EEA22EE50EFCFEAFFB4
:10152000E96E400EEE16EE6AEE6AEE6AFE0EEA6AAA
:10153000DB34FE0BEA36E96E9F0EE926050EEA2241
:10154000EE50EFCFEAFFE96EEE7CFE0EEA6ADB3486
:10155000FE0BEA36E96E9F0EE926050EEA22EF74CD
:10156000400E146EFE0EEA6ADB34FE0BEA36E96EBC
:101570009F0EE926050EEA22EE50EFCFEAFFE96E54
:101580001450EF16FE0EEA6ADB34FE0BEA36E96E03
:101590009F0EE926050EEA22EE50EFCFEAFFE96E34
:1015A000EF7CE552E7CFD9FF1200606A646A05015B
:1015B000916B00D012000501915113E1606A646AD9
:1015C000160E626E9F0E666E7B0E646ED08EA584C4
:1015D000A384F28E60B602D06086FCD70501010EAE
:1015E000916F12000501C2514DE1010EC26FC3514E
:1015F00049E1010EC36F020EA65D0DE19FC5E9FF33
:10160000A0C5EAFFEE52EF6A9FC5E9FFA0C5EAFF59
:10161000C80EEF6E37D0A60535E1B96B95C5E9FF69
:1016200096C5EAFFEE52080EEF6E95C5E9FF96C526
:10163000EAFF020EE926000EEA22300EEE6E040EDC
:10164000ED6E95C5E9FF96C5EAFF840EEF6E010EBB
:10165000B96F97C5E9FF98C5EAFFEE52080EEF6E25
:1016600097C5E9FF98C5EAFF020EE926000EEA22B7
:10167000300EEE6E040EED6E97C5E9FF98C5EAFFD9
:10168000800EEF6E12000501C46BC56B020EA65DE5
:101690001AE197C5E9FF98C5EAFFEE52080EEF6E12
:1016A00097C5E9FF98C5EAFF020EE926000EEA2277
:1016B000380EEE6E040EED6E97C5E9FF98C5EAFF91
:1016C000C80EEF6E1FD0AA510401365D0501AB5163
:1016D0000401375904E236C4AAF537C4ABF5D1D8B2
:1016E0009FC5E9FFA0C5EAFF020EE926000EEA2227
:1016F000380EEE6E040EED6E9FC5E9FFA0C5EAFF41
:10170000C80EEF6E1200D9CFE6FFE1CFD9FF020E6F
:10171000E126000EDE6E040EDD6EFD0EDB50E824C9
:10172000166EFE0EDB50040DF3501624040DF3CF9D
:1017300014F0F4CF15F0D9CFE9FFDACFEAFF145057
:10174000EE261550ED22DECFE9FFDDCFEAFFEF9E5A
:10175000FD0EDB500FE1FE0EEA6ADB34FE0BEA36CB
:10176000E96E990EE926050EEA22DECFEEFFDDCF07
:10177000EDFF0ED0FE0EEA6ADB34FE0BEA36E96EB0
:101780009F0EE926050EEA22DECFEEFFDDCFEDFF4C
:10179000DECFE9FFDDCFEAFFEF9CDECFE9FFDDCF53
:1017A000EAFF040EE926000EEA22EF8C020EE15C4D
:1017B00002E2E16AE552E16EE552E7CFD9FF12009D
:1017C00060980501A9BF2BD0AEAF09D0020EA66F5D
:1017D000C55101E158DF0501C36BC26B1FD097C52E
:1017E000E9FF98C5EAFFEE52080EEF6E97C5E9FFD4
:1017F00098C5EAFF020EE926000EEA22300EEE6ED0
:10180000040EED6E97C5E9FF98C5EAFF8C0EEF6EEA
:101810009FC5E9FFA0C5EAFF840EEF6E31D0040139
:1018200030AF0DD00501010EA66FC45101E12BDFD1
:101830000501C36BC26BC15101E1D4DE21D00501AA
:10184000020EA66F97C5E9FF98C5EAFFEE52080E93
:10185000EF6E97C5E9FF98C5EAFF020EE926000E74
:10186000EA22300EEE6E040EED6E97C5E9FF98C5C4
:10187000EAFF840EEF6EC36BC26BC15101E1B2DEB1
:101880001200D9CFE6FFE1CFD9FFE652080EDF6E96
:101890000501AA5D000EAB590BE2AAC5DFFFA551F9
:1018A00003E1010EA56F04D0A50502E1020EA56FAC
:1018B000DF50146E156A1450AA5DAA6F1550AB590B
:1018C000AB6F9FC5E9FFA0C5EAFFEE52DFCFEFFF88
:1018D000380EB36F040EB46FA9B119D0DF5016E003
:1018E000A7C5F6FFA8C5F7FFA72B000EA823080081
:1018F000F550E66EB3C5E9FFB4C5EAFFB32B000EA1
:10190000B423E552E750EF6EDF06E8D717D0DF507B
:1019100015E0A7C5E9FFA8C5EAFFA72B000EA8237D
:10192000EF50E66EB3C5E9FFB4C5EAFFB32B000E76
:10193000B423E552E750EF6EDF06E9D7E552E552F2
:10194000E7CFD9FF1200D9CFE6FFE1CFD9FF020ED2
:10195000E12695C5E9FF96C5EAFFEE52EFCFDFFF1E
:10196000DFCF14F014500501AF5D000EB05902E254
:10197000AFC5DFFFDF50146E156A1450AF5DAF6F57
:101980001550B059B06F010EDB6ADF50F36E010ED7
:10199000DBCFF4FFF350F45C16E2010EDB50EA6A91
:1019A000380FE96E040EEA22EF50E66EACC5E9FF8F
:1019B000ADC5EAFFAC2B000EAD23E552E750EF6E4C
:1019C000010EDB2AE2D7000ED880AF55000EB055CD
:1019D00028E297C5E9FF98C5EAFFEE52080EEF6EC0
:1019E00097C5E9FF98C5EAFF020EE926000EEA2234
:1019F000380EEE6E040EED6E95C5E9FF96C5EAFF52
:101A0000EF50400B07E197C5E9FF98C5EAFFC80E04
:101A1000EF6E06D097C5E9FF98C5EAFF880EEF6E16
:101A200028D097C5E9FF98C5EAFFEE52080EEF6E81
:101A300097C5E9FF98C5EAFF020EE926000EEA22E3
:101A4000300EEE6E040EED6E97C5E9FF98C5EAFF05
:101A5000840EEF6EB151B21107E005D0B2C5FAFFA6
:101A60000501B151F96EFADF0501AE9FC15101E1E7
:101A7000B9DD020EE15C02E2E16AE552E16EE55297
:101A8000E7CFD9FF1200D9CFE6FFE1CFD9FFE65269
:101A90000501A98F020EE66EE66AE66A6B0EE66E37
:101AA0000F0EE66EE7EC15F0146E050EE15E1450B5
:101AB000300EE66EE66AE66A000EE66E040EE66E2C
:101AC000E7EC15F0146E050EE15E1450608CDF6AD1
:101AD000030EDF5C10E2DF50EA6ABA0FE96E050E12
:101AE000EA22EF6ADF50EA6ABD0FE96E050EEA22CC
:101AF000EF6ADF2AEDD7020EE66EE66AE66A930E1B
:101B0000E66E050EE66EE7EC15F0146E050EE15E6E
:101B10001450609C0501080E9F6F040EA06F000E0C
:101B2000956F040E966F95C597F596C598F532C4D6
:101B300092F5925103E1100E916F13D0010EE66EF3
:101B4000E66A920EE66E050EE66E010EE66EE66A37
:101B500023EC07F0146E060EE15E14500501200E12
:101B6000916FE552E552E7CFD9FF1200800E0401D4
:101B7000305D5BE10501C00EA96F04013351030A1A
:101B800034E0010A0EE0030A03E00501A96B4DD021
:101B900005011C0EA76F0F0EA86F120EAA6FAB6B7C
:101BA00044D03251F66EF76AD890F636F736DD0E2D
:101BB000F6260F0EF7220900F5CFA7F50A00F5CF9C
:101BC000A8F5020E0501F76AA725F66EA851F722BF
:101BD0000800F5CFAAF5030EF76AA725F66EA851FF
:101BE000F7220800F5CFABF520D0030E325D1AE2E4
:101BF0003251F66EF76AD890F636F736DF0EF626D3
:101C00000F0EF7220900F5CFA7F50A00F5CFA8F5CA
:101C1000A7C5F6FFA8C5F7FF0800F5500501AA6F94
:101C2000AB6B02D00501A96B00D01200D9CFE6FF43
:101C3000E1CFD9FF020EE1260401386B396B305138
:101C40001F0B020A13E0030A0EE0010A01E043D071
:101C50000501A98F02D0040138810501B50502E113
:101C60000401388338D00501A98F35D00501A98F2B
:101C7000040134BF10D034510F0BE96EEA6AD890DA
:101C8000E936EA36990EE926050EEA22EECFDEFFA6
:101C9000EDCFDDFF0FD034510F0BE96EEA6AD8901B
:101CA000E936EA369F0EE926050EEA22EECFDEFF80
:101CB000EDCFDDFFDECFE9FFDDCFEAFFEF50800B98
:101CC00009E0DECFE9FFDDCFEAFFEF50040B02E0D1
:101CD000010E386F00D00501A9AF07D0380EA76FED
:101CE000040EA86FA981020EAA6F020EE15C02E247
:101CF000E16AE552E16EE552E7CFD9FF12006AA032
:101D000015D095C5E9FF96C5EAFFEF5080080DE1B3
:101D10009FC5E9FFA0C5EAFFEF50840806E195C51D
:101D2000E9FF96C5EAFF8C0EEF6E6A90659A120085
:101D30006484659860820501010EB66F000EE66E40
:101D4000E66AE66EE66A750EE66EE66A23EC07F072
:101D5000146E060EE15E145012000501B66B000E03
:101D6000E66EE66AE66EE66A740EE66EE66A23ECF6
:101D700007F0146E060EE15E14506092649465A440
:101D800002D06594FCD71200D9CFE6FFE1CFD9FF8E
:101D9000E65205012D0EC06FFD0EB71553E17E0E04
:101DA000B715E8407F0B040DF3CF95F5F4CF96F50A
:101DB000000E9527040E962395C597F596C598F5C0
:101DC000977595C5E9FF96C5EAFFEF503C0BE842D1
:101DD000E8420D0835E1DF6A080EDF5C23E295C5B5
:101DE000E9FF96C5EAFF020EE926000EEA22EE5050
:101DF000EFCFEAFFE96EEF50E66EDF50EA6A300F90
:101E0000E96E040EEA22E552E750EF6E95C5E9FF50
:101E100096C5EAFF020EE926000EEA22EE2AEF221C
:101E2000DF2ADAD795C5E9FF96C5EAFF020EE92653
:101E3000000EEA22300EEE6E040EED6E0DD801D0CB
:101E40003AD805D0FD0EB715040801E159D8E5527E
:101E5000E552E7CFD9FF12000501A56BC16BC46B3A
:101E6000C56BB96BA66B9FC5E9FFA0C5EAFFEF9EE6
:101E70009F759FC5E9FFA0C5EAFFEF9E9F7597C5B7
:101E8000E9FF98C5EAFFEF9EA96BAA6BAB6BAE6B3F
:101E9000AF6BB06B8FD8000EE66EE66AE66EE66A50
:101EA000030EE66EE66A23EC07F0146E060EE15EA2
:101EB0001450E0EF0BF0020E0501A65D02E143DDD8
:101EC0001ED0A66BB9511AE197C5E9FF98C5EAFF84
:101ED000EE52080EEF6E97C5E9FF98C5EAFF020EB5
:101EE000E926000EEA22300EEE6E040EED6E97C566
:101EF000E9FF98C5EAFF8C0EEF6E01D0B96B1200B6
:101F0000D9CFE6FFE1CFD9FFE6529FC5E9FFA0C5D3
:101F1000EAFFEF50400B01E0010EDF6E05019F75F7
:101F2000080E915D09E132C463FF635003E0100EB7
:101F3000916F02D0040E916FA60528E19FC5E9FFBD
:101F4000A0C5EAFF020EE926000EEA22380EEE6E68
:101F5000040EED6E96DC020E0501A55D07E19FC53E
:101F6000E9FFA0C5EAFF840EEF6E0FD0DF5007E156
:101F70009FC5E9FFA0C5EAFFC80EEF6E06D09FC55A
:101F8000E9FFA0C5EAFF880EEF6E0FD0AEAF0CD010
:101F9000B151B21107E005D0B2C5FAFF0501B15148
:101FA000F96EFADF0501AE9FA66BE552E552E7CF69
:101FB000D9FF120004013051600BE842E842E842C8
:101FC000E842E842000901E058D031510C0A54E0DF
:101FD0000B0A43E00C0A35E0010A26E00B0A22E076
:101FE000020A20E0030A1CE0080A10E0010A0CE0E3
:101FF0000F0A08E0030A01E03FD00501A98F080E8F
:10200000916F3BD0B3DD39D03EDD37D00501920E64
:10201000A76F050EA86FA981010EAA6FA98F2DD0F9
:1020200005DE2BD02BD829D034510501A76FA86B22
:10203000930EA727050EA823A981010EAA6FA98FC9
:102040001CD00501A98F04013451EA6A930FE96E8F
:10205000050EEA2232C4EFFF10D0000EE66EE66AEB
:10206000E66EE66A020EE66EE66A23EC07F0146E90
:10207000060EE15E145001D000D01200D9CFE6FF69
:10208000E1CFD9FF050EE1260401320510E1305100
:102090001F0B00090CE10501A98F030E0401315D3E
:1020A00004E10501010EB56F02D00501B56B040115
:1020B000325101E020D130511F0B020801E01BD149
:1020C00034510F0B000901E116D134510F0B0208F6
:1020D00001E211D1200E0501915D01E00CD1A98F23
:1020E000040134BF1AD034510F0BE96EEA6AD8905C
:1020F000E936EA36990EE926050EEA22EECFDEFF32
:10210000EDCFDDFF34510F0BEA6ABD0FE96E050E0E
:10211000EA22020EEFCFDBFF19D034510F0BE96E2C
:10212000EA6AD890E936EA369F0EE926050EEA22D9
:10213000EECFDEFFEDCFDDFF34510F0BEA6ABA0FB1
:10214000E96E050EEA22020EEFCFDBFFD950020F37
:10215000E96EDACFEAFFEF50010B03E1000EDF94E6
:1021600001D0DF8434BF10D034510F0BE96EEA6A1E
:10217000D890E936EA36990EE926050EEA22DECF36
:10218000EEFFDDCFEDFF0FD034510F0BE96EEA6AA1
:10219000D890E936EA369F0EE926050EEA22DECF10
:1021A000EEFFDDCFEDFF030E315D23E1DECFE9FF72
:1021B000DDCFEAFFEF50800B13E034BF09D034517C
:1021C0000F0BEA6ABD0FE96E050EEA22EF8208D016
:1021D00034510F0BEA6ABA0FE96E050EEA22EF825C
:1021E000840E146EDECFE9FFDDCFEAFF1450EF124C
:1021F00082D0DF74DECFE9FFDDCFEAFFEF50800B46
:102200001BE0DECFE9FFDDCFEAFFEF9EDECFE9FF87
:10221000DDCFEAFFEF8C020EE66EE66ADECFE6FF68
:10222000DDCFE6FF050EE66EE66A23EC07F0146EDE
:10223000060EE15E145005D0DECFE9FFDDCFEAFFE8
:10224000EF8CDF74D950020FE96EDACFEAFFEF505E
:10225000020B07E1DECFE9FFDDCFEAFFEF50800B95
:102260002DE0040134BF09D034510F0BEA6ABD0FD1
:10227000E96E050EEA22EF9208D034510F0BEA6A9C
:10228000BA0FE96E050EEA22EF923B0E146EDECF16
:10229000E9FFDDCFEAFF1450EF16020EE66EE66AA4
:1022A000DECFE6FFDDCFE6FF050EE66EE66A23EC45
:1022B00007F0146E060EE15E145008D03B0E146E4B
:1022C000DECFE9FFDDCFEAFF1450EF1604013451F1
:1022D0000F0B156A6A0F146E0F0E1522030E14C031
:1022E000DBFF040E15C0DBFF030EDBCFE9FF040E9E
:1022F000DBCFEAFFEF90050EE15C02E2E16AE55216
:0A230000E16EE552E7CFD9FF1200AD
:06230A000001E56BE66B2B
:10231000E76BE86BEB6BEC6BED6BEE6BEF6BF06B05
:10232000F16BF26BF36BF46BF56BF66BF76BF86BB1
:10233000F96BFA6BFB6BFC6BFD6BFE6BBB68BA82D7
:102340009D829F92BA843F0ECD140009CD6ECF0EB0
:10235000CD140009CD6ECD82CD8012009EA26FD02B
:102360000001E52B000EE623E723E823EB050CE153
:10237000EC2B000EED23320EEC1901E1ED5104E1DE
:10238000EC6BED6B22EC13F00001EE050FE1EF2B8F
:10239000000EF023DC0EEF1902E1050EF01906E144
:1023A000EF6BF06BBAEC14F056EC14F00001F10591
:1023B00015E1F22B000EF3232C0EF21901E1F3517B
:1023C0000DE121EC16F0010805E1420EE66E72EC1B
:1023D00007F0E5520001F16BF26BF36BF4050EE1CF
:1023E000F52B000EF623060EF51901E1F65106E174
:1023F00099EC02F00001F46BF56BF66BF7050EE15A
:10240000F82B000EF923320EF81901E1F95106E11B
:102410009BEC02F00001F76BF86BF96BFA050FE12A
:10242000FB2B000EFC23FD51FB1902E1FE51FC19B0
:1024300006E18A7AFA6BFB6BFC6BFD6BFE6B12009C
:10244000E5C006F0E6C007F0E7C008F0E8C009F014
:1024500000D01200D9CFE6FFE1CFD9FF040EE1266C
:10246000EFDF06C0DEFF07C0DEFF08C0DEFF09C0E9
:10247000DDFFDD52DD52FB0EDBCF14F0FC0EDBCFB7
:1024800015F0FD0EDBCF16F0FE0EDBCF17F0D9CF27
:10249000E9FFDACFEAFFEE501426EE501522EE5097
:1024A0001622EE50172214C0E6FF15C0E6FF16C034
:1024B000E6FF17C0E6FFC4DFE552E7CF17F0E552AD
:1024C000E7CF16F0E552E7CF15F0E552E7CF14F06D
:1024D00009501718E8AE02D0173408D01450065C23
:1024E00015500758165008581750095801E2C3D71D
:1024F000040EE15C02E2E16AE552E16EE552E7CFEB
:10250000D9FF12000001EC6BED6B010EEB6F1200B6
:102510000001EC6BED6BEB6B12000001EB5100D096
:1025200012000001EF6BF06B010EEE6F1200000164
:10253000EF6BF06BEE6B12000001EE5100D0120059
:102540000001F26BF36B010EF16F12000001F26BF0
:10255000F36BF16B12000001F15100D01200000189
:10256000F56BF66B010EF46F12000001F56BF66B64
:10257000F46B12000001F45100D012000001F86B5E
:10258000F96B010EF76F12000001F86BF96BF76B36
:1025900012000001F75100D01200D9CFE6FFE1CFC1
:1025A000D9FFFD0EDBCFFDF0FE0EDBCFFEF000010C
:1025B000FB6BFC6B010EFA6FE552E7CFD9FF1200FF
:1025C0000001FB6BFC6BFA6B12000001FA5100D0AA
:0225D0001200F7
:0E25D200830EC2140C09C26E1200C2507C0BA4
:1025E000E842E842030803E1010E03D002D0000EE6
:1025F00000D01200830EC2143809C26E1200C250FD
:102600007C0BE842E8420E0803E1010E03D002D041
:10261000000E00D0120098EC14F023EF14F0C090DC
:10262000C082C084C086C088C08AC08EC16A9D8CAA
:102630009F9C9E6ACEDFC280020EE66E47EC16F0CB
:10264000E5521200C6DFC2821200D9CFE6FFE1CF09
:10265000D9FF060EE126C2DF01082EE1C450E66E66
:10266000D950040FE96EDACFEAFFE552E750EE6E7B
:10267000ED6A040EDBCF16F0050EDBCF17F016C0A7
:1026800017F0166AC35000011624146E000E1720AE
:10269000156E040E14C0DBFF050E15C0DBFF040E23
:1026A000DBCFE6FF050EDBCFE6FF38EC14F0E5529A
:1026B000E552A0DFC2822ED0A2DF01082BE1C45078
:1026C000E66ED950020FE96EDACFEAFFE552E75025
:1026D000EE6EED6A020EDBCF16F0030EDBCF17F0C5
:1026E00016C017F0166AC35000011624146E000EAF
:1026F0001720156E020E14C0DBFF030E15C0DBFFA2
:10270000020EDBCFE6FF030EDBCFE6FFA0EC14F0FA
:10271000E552E552060EE15C02E2E16AE552E16E45
:08272000E552E7CFD9FF1200DA
:0827280093880F015C99948E67
:102730005D9F8250800B01E0010E0401696F6A6B9E
:102740008150100B01E0010E676F686B5AEC15F0B9
:102750005FEF01F08688878EF286F1808250800BD1
:1027600001E0010E0401696F6A6B8150100B01E0FA
:10277000010E676F686B6751681108E067C4E6FF78
:1027800068C4E6FF5DEC15F0E552E552F2901200E8
:10279000D9CFE6FFE1CFD9FF040EE126F2A049D060
:1027A0008150100B01E0010EDE6EDD6A8250800B5D
:1027B00001E0010EE66ED950020FE96EDACFEAFFB2
:1027C000E552E750EE6EED6AF290DECF14F0DDCF09
:1027D00015F004016751141802E1685115180CE056
:1027E000DECFE6FFDDCFE6FF5DEC15F0E552E5520A
:1027F000DECF67F4DDCF68F4020EDBCF14F0030EFA
:10280000DBCF15F004016951141802E16A51151863
:1028100010E0020EDBCFE6FF030EDBCFE6FF63EC3A
:1028200001F0E552E552020EDBCF69F4030EDBCF77
:102830006AF4040EE15C02E2E16AE552E16EE552FF
:06284000E7CFD9FF1200F2
:0A28460092840F015B8592865B8788
:102850000401596B5A6B5B6B5C6B5D6B5E6B5F6B02
:10286000606B616B626B636B646B656B666B1200B4
:10287000D9CFE6FFE1CFD9FF9CEC12F0010812E1BD
:10288000FD0EDBCF14F0FE0EDBCF15F0040114506B
:10289000635D1550645906E2FD0EDBCF63F4FE0E56
:1028A000DBCF64F4E552E7CFD9FF12000401592BC6
:1028B000000E5A23320E635D000E645903E35D2B54
:1028C000000E5E233E0E635D000E645903E35F2B32
:1028D000000E60230A0E591901E15A5122E15B2BC7
:1028E000000E5C23030E5D5D000E5E590AE38982D3
:1028F000530EE66E72EC07F0E5520401010E656FAF
:102900000AD0650506E18992730EE66E72EC07F057
:10291000E5520401656B596B5A6B5D6B5E6B5F6BC7
:10292000606B636B646B12000401665100D012008F
:1029300094840F015D850501FE6BFF6BFD6B12003A
:10294000D9CFE6FFE1CFD9FFFD0EDBCF14F0FE0EAD
:10295000DBCF15F005011450FE5D1550FF5906E25E
:10296000FD0EDBCFFEF5FE0EDBCFFFF5E552E7CF28
:10297000D9FF1200D9CFE6FFE1CFD9FFE65205011A
:10298000000EFE5D000EFF5908E3620EFE5D020EB2
:10299000FF5903E2010EDF6E18D0620EFE5D020EDB
:1029A000FF5908E3200EFE5D030EFF5903E2020EFD
:1029B000DF6E0BD0200EFE5D030EFF5903E3030E06
:1029C000DF6E03D0040EDF6E21D0FD050CE1030E97
:1029D000DF5C09E18A8A4C0EE66E72EC07F0E55284
:1029E000DFCFFDF510D0030EFD5D0BE1DF0409E143
:1029F0008A9A6C0EE66E72EC07F0E552DFCFFDF5B9
:102A000002D0DFCFFDF50501FE6BFF6BE552E5520D
:062A1000E7CFD9FF120020
:0A2A16001E0EF66E000EF76E000EA5
:102A2000F86E05010900F550F86F0900F550F96FCF
:102A300003E1F86701D03DD00900F550F36F0900BC
:102A4000F550F46F0900F550F56F09000900F550D5
:102A5000E96E0900F550EA6E090009000900F55019
:102A6000F66F0900F550F76F09000900F6CFFAF587
:102A7000F7CFFBF5F8CFFCF5F3C5F6FFF4C5F7FF8C
:102A8000F5C5F8FF0501F65302E1F75307E0090029
:102A9000F550EE6EF607F8E2F707F9D7FAC5F6FF3C
:102AA000FBC5F7FFFCC5F8FF0501F807000EF95B51
:042AB000BFD712007A
:0C2AB4000001FF6B1200D9CFE6FFE1CF5C
:102AC000D9FFD950FD0FE96EFF0EDA20EA6EEE5005
:102AD000ED1009E10001FF6B89906D0EE66E72EC5E
:102AE00007F0E55209D00001010EFF6F89804D0EFD
:102AF000E66E72EC07F0E552E552E7CFD9FF12001F
:082B00000001FF5100D012009A
:082B080092900F015B9189908E
:102B100092925B938992939A5C9B8A9A92945B952A
:102B20009298929A5B9B929C929E8098809A809CAD
:102B3000809E93905C9193945C9593965C97819022
:102B40008194819694909492949C5D9D82908292BF
:042B5000829C120051
:0C2B5400D9CFE6FFDACFE6FFE1CFD9FFD2
:102B6000E2CFDAFFE652E652CE50DF6E010ECFCF53
:102B7000DBFFDECF14F0DDCF15F014C0F3FF15C07E
:102B8000F4FFE552E552E552E5CFDAFFE7CFD9FF92
:022B9000120031
:0E2B920008C012F008500D02F4CF07F0F3CF88
:102BA00006F009500E02F4CF09F0F3CF08F00D0241
:102BB000F3500726F4500822E86A092212500E0248
:0E2BC000F3500726F4500822E86A0922000CA0
:022BCE00FE0EF9
:102BD000E3CFE9FFFF0EE3CFEAFFE9CFF3FFEACF50
:102BE000F4FFFB0EE35003E1FC0EE35009E0FB0EA3
:102BF000E30602E2FC0EE306FD0EE350EE6EF1D7B3
:022C00001200C0
:0E2C0200FF0EE350216EEF0E01D0F30EE76ED1
:102C1000E72E08EF16F00C0E206EE76AE72E0EEF97
:102C200016F0202E0DEF16F0212E06EF16F01200F2
:102C300093820F015C931200F18AF0861200A0EFDC
:102C400012F081B203D0000E03D002D0010E00D0EA
:022C5000120070
:0E2C5200000EF36E00EE00F0080E01D8120026
:102C6000EA6002D0EE6AFCD7F350E9601200EE6A27
:022C7000FCD78F
:0E2C720013EE00F023EE00F0F86A019C0BEC6C
:0E2C800015F003EC00F0D7EC05F0FBD71200C6
:022C8E00FF0E37
:102C9000E350216E1B0E00D001D0200EE76EE72E10
:0A2CA000FED7212EFAD700D0120053
:020000040030CA
:0100000021DE
:0100010008F6
:010002001FDE
:010003003CC0
:010005009169
:010006008178
:00000001FF
